:020000040800F2
:10000000F84F002009010008050200080502000859
:1000100005020008050200080502000800000000B3
:1000200000000000000000000000000005020008C1
:100030000502000800000000050200080502000893
:100040000502000805020008050200080502000874
:1000500005020008050200084D010008050200081D
:100060000502000805020008050200080502000854
:100070000502000805020008050200080502000844
:100080000502000805020008050200080502000834
:100090000502000805020008050200080502000824
:1000A0000502000805020008050200080502000814
:1000B0000502000805020008050200080502000804
:1000C00005020008050200080502000805020008F4
:1000D00005020008050200080502000805020008E4
:1000E00005020008050200080502000800000000E3
:1000F0000000000000000000000000000000000000
:100100000000000000000000002103E00A4B5B58E3
:100110004350043109480A4B42189A42F6D3094A1F
:1001200002E0002342F8043B074B9A42F9D300F067
:1001300025F830BFFDE7000008020008000000209D
:10014000000000200000002000000020074A0849AD
:10015000536943F0010353614FF400528B6813F06D
:10016000010F044B14BF5A611A617047000401402B
:1001700000080140001001407047000000254024A5
:100180001A4A1B4990691B4B40F0050090610868B2
:1001900020F00C000860086840F0080008609968CA
:1001A000154841F001019960D96841F00101D96019
:1001B00085601868114940F0010018600C6091F8E2
:1001C0000633234381F8063362B64FF40050916939
:1001D0000B4B41F0100191615A6822F440125A60B1
:1001E0005A6842F480125A601861FEE7001002401B
:1001F00000080140000401400000014000E100E06F
:0802000000100140FEE70000C0
:0400000508000109E5
:00000001FF
