:020000040800F2
:10000000F84F002009010008E5010008E50100089B
:10001000E5010008E5010008E50100080000000016
:10002000000000000000000000000000E5010008E2
:10003000E501000800000000E5010008E5010008F6
:10004000E5010008E5010008E5010008E5010008F8
:10005000E5010008E50100084D010008E501000880
:10006000E5010008E5010008E5010008E5010008D8
:10007000E5010008E5010008E5010008E5010008C8
:10008000E5010008E5010008E5010008E5010008B8
:10009000E5010008E5010008E5010008E5010008A8
:1000A000E5010008E5010008E5010008E501000898
:1000B000E5010008E5010008E5010008E501000888
:1000C000E5010008E5010008E5010008E501000878
:1000D000E5010008E5010008E5010008E501000868
:1000E000E5010008E5010008E50100080000000046
:1000F0000000000000000000000000000000000000
:100100000000000000000000002103E00A4B5B58E3
:100110004350043109480A4B42189A42F6D3094A1F
:1001200002E0002342F8043B074B9A42F9D300F067
:1001300011F830BFFDE70000E801000800000020D2
:10014000000000200000002000000020704700BFD9
:100150007047000000201E4D1E49AB6980B443F07B
:100160000503AB610B681C4A23F00C030B600B68A2
:100170001A4C43F008030B60936843F0010393604B
:10018000D36843F00103D360A060136843F0010318
:10019000136062B64FF40057114B38461C46AE69E7
:1001A00046F01006AE615D6825F440155D605D683F
:1001B00045F480155D601F615369536943F0010385
:1001C00053618B68DB074CBF60612061F4E700BFBF
:1001D00000100240000801400004014000000140FE
:0801E00000100140FEE70000E1
:0400000508000109E5
:00000001FF
