:020000040800F2
:10000000F84F0020090100084D0200084D020008C9
:100010004D0200084D0200084D02000800000000DB
:100020000000000000000000000000004D02000879
:100030004D020008000000004D0200084D020008BB
:100040004D0200084D0200084D0200084D02000854
:100050004D0200084D0200084D0200084D02000844
:100060004D0200084D0200084D0200084D02000834
:100070004D0200084D0200084D0200084D02000824
:100080004D0200084D0200084D0200084D02000814
:100090004D0200084D0200084D0200084D02000804
:1000A0004D0200084D0200084D0200084D020008F4
:1000B0004D0200084D0200084D0200084D020008E4
:1000C0004D0200084D0200084D0200084D020008D4
:1000D0004D0200084D0200084D0200084D020008C4
:1000E0004D0200084D0200084D020008000000000B
:1000F0000000000000000000000000000000000000
:100100000000000000000000002103E00A4B5B58E3
:100110004350043109480A4B42189A42F6D3094A1F
:1001200002E0002342F8043B074B9A42F9D300F067
:100130008FF830BFFDE700006804000800000020D1
:100140000400002004000020080000207047000088
:10015000002851D0002300BF00BF00BF00BF00BF78
:1001600000BF00BF00BF00BF00BF00BF00BF00BF97
:1001700000BF00BF00BF00BF00BF00BF00BF00BF87
:1001800000BF00BF00BF00BF00BF00BF00BF00BF77
:1001900000BF00BF00BF00BF00BF00BF00BF00BF67
:1001A00000BF00BF00BF00BF00BF00BF00BF00BF57
:1001B00000BF00BF00BF00BF00BF00BF00BF00BF47
:1001C00000BF00BF00BF00BF00BF00BF00BF00BF37
:1001D00000BF00BF00BF00BF00BF00BF00BF00BF27
:1001E00000BF00BF00BF00BF00BF00BF00BF00BF17
:1001F00001339AB28242AED3704700BF114A12490E
:1002000013785BB1087853780344D8B25BB2642B9F
:100210000BDD6420002308701370704750780B7852
:100220001B1AD8B25BB2642BF3DC002B01DB0B7022
:10023000704710B4002301240B701470184610BCD2
:10024000704700BF0000002004000020FEE700000F
:100250004FF40051804B2DE9F0470E460F461D46E6
:100260004FF000084FF0010A4FF064097B48DFF8B7
:10027000F0E18269DFF8ECC142F0100282615A6855
:1002800022F440125A605A6842F480125A6019618E
:100290009EF80030002B00F0D0809EF801309CF8D2
:1002A00000201344D9B25BB2642B40F3BD80002020
:1002B00064218CF800908EF800800A242F610029B8
:1002C00000F0B080002300BF00BF00BF00BF00BF30
:1002D00000BF00BF00BF00BF00BF00BF00BF00BF26
:1002E00000BF00BF00BF00BF00BF00BF00BF00BF16
:1002F00000BF00BF00BF00BF00BF00BF00BF00BF06
:1003000000BF00BF00BF00BF00BF00BF00BF00BFF5
:1003100000BF00BF00BF00BF00BF00BF00BF00BFE5
:1003200000BF00BF00BF00BF00BF00BF00BF00BFD5
:1003300000BF00BF00BF00BF00BF00BF00BF00BFC5
:1003400000BF00BF00BF00BF00BF00BF00BF00BFB5
:1003500000BF00BF00BF00BF00BF00BF00BF00BFA5
:1003600001339AB28A42AED36E61002851D0002385
:1003700000BF00BF00BF00BF00BF00BF00BF00BF85
:1003800000BF00BF00BF00BF00BF00BF00BF00BF75
:1003900000BF00BF00BF00BF00BF00BF00BF00BF65
:1003A00000BF00BF00BF00BF00BF00BF00BF00BF55
:1003B00000BF00BF00BF00BF00BF00BF00BF00BF45
:1003C00000BF00BF00BF00BF00BF00BF00BF00BF35
:1003D00000BF00BF00BF00BF00BF00BF00BF00BF25
:1003E00000BF00BF00BF00BF00BF00BF00BF00BF15
:1003F00000BF00BF00BF00BF00BF00BF00BF00BF05
:1004000000BF00BF00BF00BF00BF01339AB28242ED
:10041000AED3013C14F0FF043FF43AAF2F61002942
:100420007FF450AF6E61A2E7002B0EDBC1F16400D8
:100430008CF8003080B289B23FE79EF801209CF82A
:1004400000309B1AD9B25BB22EE7642000218CF8F1
:1004500000808EF800A030E700100140001002403C
:08046000000000200400002050
:04046800010100008E
:0400000508000109E5
:00000001FF
