:020000040800F2
:10000000F84F002009010008750200087502000879
:100010007502000875020008750200080000000063
:100020000000000000000000000000007502000851
:100030007502000800000000750200087502000843
:1000400075020008750200087502000875020008B4
:1000500075020008750200085101000875020008C9
:100060007502000875020008750200087502000894
:100070007502000875020008750200087502000884
:100080007502000875020008750200087502000874
:100090007502000875020008750200087502000864
:1000A0007502000875020008750200087502000854
:1000B0007502000875020008750200087502000844
:1000C0007502000875020008750200087502000834
:1000D0007502000875020008750200087502000824
:1000E0007502000875020008750200080000000093
:1000F0000000000000000000000000000000000000
:100100000000000000000000002103E00A4B5B58E3
:100110004350043109480A4B42189A42F6D3094A1F
:1001200002E0002342F8043B074B9A42F9D300F067
:10013000A3F830BFFDE70000EC0400080000002039
:100140000400002004000020080000207047000088
:10015000064A0749536943F0010353618B68DB0783
:100160004CBF03220122034B1A7070470004014068
:100170000008014000000020002851D0002300BFEB
:1001800000BF00BF00BF00BF00BF00BF00BF00BF77
:1001900000BF00BF00BF00BF00BF00BF00BF00BF67
:1001A00000BF00BF00BF00BF00BF00BF00BF00BF57
:1001B00000BF00BF00BF00BF00BF00BF00BF00BF47
:1001C00000BF00BF00BF00BF00BF00BF00BF00BF37
:1001D00000BF00BF00BF00BF00BF00BF00BF00BF27
:1001E00000BF00BF00BF00BF00BF00BF00BF00BF17
:1001F00000BF00BF00BF00BF00BF00BF00BF00BF07
:1002000000BF00BF00BF00BF00BF00BF00BF00BFF6
:1002100000BF00BF00BF00BF01339AB28242AED31D
:10022000704700BF114A124953785BB108781378C0
:100230000344D8B25BB2642B0BDD6420002308704A
:100240005370704710780B781B1AD8B25BB2642BCE
:10025000F3DC002B01DB0B70704710B4002301248A
:100260000B705470184610BC704700BF000000208F
:1002700004000020FEE700002DE9F047002440269E
:10028000924A93499069934B40F005009061086849
:10029000914F20F00C0008600D68904845F008056B
:1002A0000D60996841F001019960D96841F0010140
:1002B000D960BC60196841F001011960066090F8CE
:1002C0000633334380F8063362B64FF40051844B53
:1002D0000E46A0461D460F464FF0010A4FF0640936
:1002E0009069DFF800E240F0100090615A68DFF892
:1002F000F8C122F440125A605A6842F480125A60DF
:1003000019619EF80130002B00F0D0809EF800307B
:100310009CF800201344D9B25BB2642B40F3BD803B
:10032000002064218CF800908EF801800A242F614F
:10033000002900F0B080002300BF00BF00BF00BF55
:1003400000BF00BF00BF00BF00BF00BF00BF00BFB5
:1003500000BF00BF00BF00BF00BF00BF00BF00BFA5
:1003600000BF00BF00BF00BF00BF00BF00BF00BF95
:1003700000BF00BF00BF00BF00BF00BF00BF00BF85
:1003800000BF00BF00BF00BF00BF00BF00BF00BF75
:1003900000BF00BF00BF00BF00BF00BF00BF00BF65
:1003A00000BF00BF00BF00BF00BF00BF00BF00BF55
:1003B00000BF00BF00BF00BF00BF00BF00BF00BF45
:1003C00000BF00BF00BF00BF00BF00BF00BF00BF35
:1003D00000BF01339AB28A42AED36E61002851D079
:1003E000002300BF00BF00BF00BF00BF00BF00BFB1
:1003F00000BF00BF00BF00BF00BF00BF00BF00BF05
:1004000000BF00BF00BF00BF00BF00BF00BF00BFF4
:1004100000BF00BF00BF00BF00BF00BF00BF00BFE4
:1004200000BF00BF00BF00BF00BF00BF00BF00BFD4
:1004300000BF00BF00BF00BF00BF00BF00BF00BFC4
:1004400000BF00BF00BF00BF00BF00BF00BF00BFB4
:1004500000BF00BF00BF00BF00BF00BF00BF00BFA4
:1004600000BF00BF00BF00BF00BF00BF00BF00BF94
:1004700000BF00BF00BF00BF00BF00BF01339AB282
:100480008242AED3013C14F0FF043FF43AAF2F6137
:1004900000297FF450AF6E61A2E7002B0EDBC1F1A3
:1004A00064008CF8003080B289B23FE79EF80020EB
:1004B0009CF800309B1AD9B25BB22EE76420002171
:1004C0008CF800808EF801A030E700BF00100240D9
:1004D00000080140000401400000014000E100E08C
:0C04E0000010014000000020040000207B
:0404EC00010100000A
:0400000508000109E5
:00000001FF
